{
  "_format": "hh-sol-artifact-1",
  "contractName": "CreatorContract",
  "sourceName": "contracts/CreatorContract.sol",
  "abi": [
    {
      "anonymous": false,
      "inputs": [
        {
          "indexed": true,
          "internalType": "address",
          "name": "owner",
          "type": "address"
        },
        {
          "indexed": true,
          "internalType": "address",
          "name": "approved",
          "type": "address"
        },
        {
          "indexed": true,
          "internalType": "uint256",
          "name": "tokenId",
          "type": "uint256"
        }
      ],
      "name": "Approval",
      "type": "event"
    },
    {
      "anonymous": false,
      "inputs": [
        {
          "indexed": true,
          "internalType": "address",
          "name": "owner",
          "type": "address"
        },
        {
          "indexed": true,
          "internalType": "address",
          "name": "operator",
          "type": "address"
        },
        {
          "indexed": false,
          "internalType": "bool",
          "name": "approved",
          "type": "bool"
        }
      ],
      "name": "ApprovalForAll",
      "type": "event"
    },
    {
      "anonymous": false,
      "inputs": [
        {
          "indexed": true,
          "internalType": "address",
          "name": "previousOwner",
          "type": "address"
        },
        {
          "indexed": true,
          "internalType": "address",
          "name": "newOwner",
          "type": "address"
        }
      ],
      "name": "OwnershipTransferred",
      "type": "event"
    },
    {
      "anonymous": false,
      "inputs": [
        {
          "indexed": true,
          "internalType": "address",
          "name": "from",
          "type": "address"
        },
        {
          "indexed": true,
          "internalType": "address",
          "name": "to",
          "type": "address"
        },
        {
          "indexed": true,
          "internalType": "uint256",
          "name": "tokenId",
          "type": "uint256"
        }
      ],
      "name": "Transfer",
      "type": "event"
    },
    {
      "inputs": [
        {
          "internalType": "address",
          "name": "to",
          "type": "address"
        },
        {
          "internalType": "uint256",
          "name": "tokenId",
          "type": "uint256"
        }
      ],
      "name": "approve",
      "outputs": [],
      "stateMutability": "nonpayable",
      "type": "function"
    },
    {
      "inputs": [
        {
          "internalType": "address",
          "name": "owner",
          "type": "address"
        }
      ],
      "name": "balanceOf",
      "outputs": [
        {
          "internalType": "uint256",
          "name": "",
          "type": "uint256"
        }
      ],
      "stateMutability": "view",
      "type": "function"
    },
    {
      "inputs": [
        {
          "internalType": "uint256",
          "name": "tokenId",
          "type": "uint256"
        }
      ],
      "name": "getApproved",
      "outputs": [
        {
          "internalType": "address",
          "name": "",
          "type": "address"
        }
      ],
      "stateMutability": "view",
      "type": "function"
    },
    {
      "inputs": [
        {
          "internalType": "address",
          "name": "_owner",
          "type": "address"
        },
        {
          "internalType": "string",
          "name": "_name",
          "type": "string"
        },
        {
          "internalType": "string",
          "name": "_symbol",
          "type": "string"
        }
      ],
      "name": "initialize",
      "outputs": [],
      "stateMutability": "nonpayable",
      "type": "function"
    },
    {
      "inputs": [
        {
          "internalType": "address",
          "name": "owner",
          "type": "address"
        },
        {
          "internalType": "address",
          "name": "operator",
          "type": "address"
        }
      ],
      "name": "isApprovedForAll",
      "outputs": [
        {
          "internalType": "bool",
          "name": "",
          "type": "bool"
        }
      ],
      "stateMutability": "view",
      "type": "function"
    },
    {
      "inputs": [],
      "name": "name",
      "outputs": [
        {
          "internalType": "string",
          "name": "",
          "type": "string"
        }
      ],
      "stateMutability": "view",
      "type": "function"
    },
    {
      "inputs": [],
      "name": "owner",
      "outputs": [
        {
          "internalType": "address",
          "name": "",
          "type": "address"
        }
      ],
      "stateMutability": "view",
      "type": "function"
    },
    {
      "inputs": [
        {
          "internalType": "uint256",
          "name": "tokenId",
          "type": "uint256"
        }
      ],
      "name": "ownerOf",
      "outputs": [
        {
          "internalType": "address",
          "name": "",
          "type": "address"
        }
      ],
      "stateMutability": "view",
      "type": "function"
    },
    {
      "inputs": [],
      "name": "renounceOwnership",
      "outputs": [],
      "stateMutability": "nonpayable",
      "type": "function"
    },
    {
      "inputs": [
        {
          "internalType": "address",
          "name": "from",
          "type": "address"
        },
        {
          "internalType": "address",
          "name": "to",
          "type": "address"
        },
        {
          "internalType": "uint256",
          "name": "tokenId",
          "type": "uint256"
        }
      ],
      "name": "safeTransferFrom",
      "outputs": [],
      "stateMutability": "nonpayable",
      "type": "function"
    },
    {
      "inputs": [
        {
          "internalType": "address",
          "name": "from",
          "type": "address"
        },
        {
          "internalType": "address",
          "name": "to",
          "type": "address"
        },
        {
          "internalType": "uint256",
          "name": "tokenId",
          "type": "uint256"
        },
        {
          "internalType": "bytes",
          "name": "_data",
          "type": "bytes"
        }
      ],
      "name": "safeTransferFrom",
      "outputs": [],
      "stateMutability": "nonpayable",
      "type": "function"
    },
    {
      "inputs": [
        {
          "internalType": "address",
          "name": "operator",
          "type": "address"
        },
        {
          "internalType": "bool",
          "name": "approved",
          "type": "bool"
        }
      ],
      "name": "setApprovalForAll",
      "outputs": [],
      "stateMutability": "nonpayable",
      "type": "function"
    },
    {
      "inputs": [
        {
          "internalType": "bytes4",
          "name": "interfaceId",
          "type": "bytes4"
        }
      ],
      "name": "supportsInterface",
      "outputs": [
        {
          "internalType": "bool",
          "name": "",
          "type": "bool"
        }
      ],
      "stateMutability": "view",
      "type": "function"
    },
    {
      "inputs": [],
      "name": "symbol",
      "outputs": [
        {
          "internalType": "string",
          "name": "",
          "type": "string"
        }
      ],
      "stateMutability": "view",
      "type": "function"
    },
    {
      "inputs": [
        {
          "internalType": "uint256",
          "name": "tokenId",
          "type": "uint256"
        }
      ],
      "name": "tokenURI",
      "outputs": [
        {
          "internalType": "string",
          "name": "",
          "type": "string"
        }
      ],
      "stateMutability": "view",
      "type": "function"
    },
    {
      "inputs": [
        {
          "internalType": "address",
          "name": "from",
          "type": "address"
        },
        {
          "internalType": "address",
          "name": "to",
          "type": "address"
        },
        {
          "internalType": "uint256",
          "name": "tokenId",
          "type": "uint256"
        }
      ],
      "name": "transferFrom",
      "outputs": [],
      "stateMutability": "nonpayable",
      "type": "function"
    },
    {
      "inputs": [
        {
          "internalType": "address",
          "name": "newOwner",
          "type": "address"
        }
      ],
      "name": "transferOwnership",
      "outputs": [],
      "stateMutability": "nonpayable",
      "type": "function"
    }
  ],
  "bytecode": "0x608060405234801561001057600080fd5b50612e27806100206000396000f3fe608060405234801561001057600080fd5b506004361061010b5760003560e01c8063715018a6116100a2578063a22cb46511610071578063a22cb465146102a4578063b88d4fde146102c0578063c87b56dd146102dc578063e985e9c51461030c578063f2fde38b1461033c5761010b565b8063715018a6146102425780638da5cb5b1461024c578063906571471461026a57806395d89b41146102865761010b565b806323b872dd116100de57806323b872dd146101aa57806342842e0e146101c65780636352211e146101e257806370a08231146102125761010b565b806301ffc9a71461011057806306fdde0314610140578063081812fc1461015e578063095ea7b31461018e575b600080fd5b61012a60048036038101906101259190611e5f565b610358565b6040516101379190612271565b60405180910390f35b61014861043a565b604051610155919061228c565b60405180910390f35b61017860048036038101906101739190611eb9565b6104cc565b604051610185919061220a565b60405180910390f35b6101a860048036038101906101a39190611e1f565b610551565b005b6101c460048036038101906101bf9190611c7e565b610669565b005b6101e060048036038101906101db9190611c7e565b6106c9565b005b6101fc60048036038101906101f79190611eb9565b6106e9565b604051610209919061220a565b60405180910390f35b61022c60048036038101906102279190611c11565b61079b565b60405161023991906124ae565b60405180910390f35b61024a610853565b005b6102546108db565b604051610261919061220a565b60405180910390f35b610284600480360381019061027f9190611d94565b610905565b005b61028e6109fe565b60405161029b919061228c565b60405180910390f35b6102be60048036038101906102b99190611d54565b610a90565b005b6102da60048036038101906102d59190611cd1565b610aa6565b005b6102f660048036038101906102f19190611eb9565b610b08565b604051610303919061228c565b60405180910390f35b61032660048036038101906103219190611c3e565b610baf565b6040516103339190612271565b60405180910390f35b61035660048036038101906103519190611c11565b610c43565b005b60007f80ac58cd000000000000000000000000000000000000000000000000000000007bffffffffffffffffffffffffffffffffffffffffffffffffffffffff1916827bffffffffffffffffffffffffffffffffffffffffffffffffffffffff1916148061042357507f5b5e139f000000000000000000000000000000000000000000000000000000007bffffffffffffffffffffffffffffffffffffffffffffffffffffffff1916827bffffffffffffffffffffffffffffffffffffffffffffffffffffffff1916145b80610433575061043282610d3b565b5b9050919050565b60606065805461044990612704565b80601f016020809104026020016040519081016040528092919081815260200182805461047590612704565b80156104c25780601f10610497576101008083540402835291602001916104c2565b820191906000526020600020905b8154815290600101906020018083116104a557829003601f168201915b5050505050905090565b60006104d782610da5565b610516576040517f08c379a000000000000000000000000000000000000000000000000000000000815260040161050d906123ce565b60405180910390fd5b6069600083815260200190815260200160002060009054906101000a900473ffffffffffffffffffffffffffffffffffffffff169050919050565b600061055c826106e9565b90508073ffffffffffffffffffffffffffffffffffffffff168373ffffffffffffffffffffffffffffffffffffffff1614156105cd576040517f08c379a00000000000000000000000000000000000000000000000000000000081526004016105c49061244e565b60405180910390fd5b8073ffffffffffffffffffffffffffffffffffffffff166105ec610e11565b73ffffffffffffffffffffffffffffffffffffffff16148061061b575061061a81610615610e11565b610baf565b5b61065a576040517f08c379a00000000000000000000000000000000000000000000000000000000081526004016106519061234e565b60405180910390fd5b6106648383610e19565b505050565b61067a610674610e11565b82610ed2565b6106b9576040517f08c379a00000000000000000000000000000000000000000000000000000000081526004016106b09061246e565b60405180910390fd5b6106c4838383610fb0565b505050565b6106e483838360405180602001604052806000815250610aa6565b505050565b6000806067600084815260200190815260200160002060009054906101000a900473ffffffffffffffffffffffffffffffffffffffff169050600073ffffffffffffffffffffffffffffffffffffffff168173ffffffffffffffffffffffffffffffffffffffff161415610792576040517f08c379a00000000000000000000000000000000000000000000000000000000081526004016107899061238e565b60405180910390fd5b80915050919050565b60008073ffffffffffffffffffffffffffffffffffffffff168273ffffffffffffffffffffffffffffffffffffffff16141561080c576040517f08c379a00000000000000000000000000000000000000000000000000000000081526004016108039061236e565b60405180910390fd5b606860008373ffffffffffffffffffffffffffffffffffffffff1673ffffffffffffffffffffffffffffffffffffffff168152602001908152602001600020549050919050565b61085b610e11565b73ffffffffffffffffffffffffffffffffffffffff166108796108db565b73ffffffffffffffffffffffffffffffffffffffff16146108cf576040517f08c379a00000000000000000000000000000000000000000000000000000000081526004016108c6906123ee565b60405180910390fd5b6108d9600061120c565b565b6000609760009054906101000a900473ffffffffffffffffffffffffffffffffffffffff16905090565b600060019054906101000a900460ff1661092d5760008054906101000a900460ff1615610936565b6109356112d2565b5b610975576040517f08c379a000000000000000000000000000000000000000000000000000000000815260040161096c906123ae565b60405180910390fd5b60008060019054906101000a900460ff1615905080156109c5576001600060016101000a81548160ff02191690831515021790555060016000806101000a81548160ff0219169083151502179055505b6109cf83836112e3565b6109d7611350565b80156109f85760008060016101000a81548160ff0219169083151502179055505b50505050565b606060668054610a0d90612704565b80601f0160208091040260200160405190810160405280929190818152602001828054610a3990612704565b8015610a865780601f10610a5b57610100808354040283529160200191610a86565b820191906000526020600020905b815481529060010190602001808311610a6957829003601f168201915b5050505050905090565b610aa2610a9b610e11565b83836113b1565b5050565b610ab7610ab1610e11565b83610ed2565b610af6576040517f08c379a0000000000000000000000000000000000000000000000000000000008152600401610aed9061246e565b60405180910390fd5b610b028484848461151e565b50505050565b6060610b1382610da5565b610b52576040517f08c379a0000000000000000000000000000000000000000000000000000000008152600401610b499061242e565b60405180910390fd5b6000610b5c61157a565b90506000815111610b7c5760405180602001604052806000815250610ba7565b80610b8684611591565b604051602001610b979291906121e6565b6040516020818303038152906040525b915050919050565b6000606a60008473ffffffffffffffffffffffffffffffffffffffff1673ffffffffffffffffffffffffffffffffffffffff16815260200190815260200160002060008373ffffffffffffffffffffffffffffffffffffffff1673ffffffffffffffffffffffffffffffffffffffff16815260200190815260200160002060009054906101000a900460ff16905092915050565b610c4b610e11565b73ffffffffffffffffffffffffffffffffffffffff16610c696108db565b73ffffffffffffffffffffffffffffffffffffffff1614610cbf576040517f08c379a0000000000000000000000000000000000000000000000000000000008152600401610cb6906123ee565b60405180910390fd5b600073ffffffffffffffffffffffffffffffffffffffff168173ffffffffffffffffffffffffffffffffffffffff161415610d2f576040517f08c379a0000000000000000000000000000000000000000000000000000000008152600401610d26906122ce565b60405180910390fd5b610d388161120c565b50565b60007f01ffc9a7000000000000000000000000000000000000000000000000000000007bffffffffffffffffffffffffffffffffffffffffffffffffffffffff1916827bffffffffffffffffffffffffffffffffffffffffffffffffffffffff1916149050919050565b60008073ffffffffffffffffffffffffffffffffffffffff166067600084815260200190815260200160002060009054906101000a900473ffffffffffffffffffffffffffffffffffffffff1673ffffffffffffffffffffffffffffffffffffffff1614159050919050565b600033905090565b816069600083815260200190815260200160002060006101000a81548173ffffffffffffffffffffffffffffffffffffffff021916908373ffffffffffffffffffffffffffffffffffffffff160217905550808273ffffffffffffffffffffffffffffffffffffffff16610e8c836106e9565b73ffffffffffffffffffffffffffffffffffffffff167f8c5be1e5ebec7d5bd14f71427d1e84f3dd0314c0f7b2291e5b200ac8c7c3b92560405160405180910390a45050565b6000610edd82610da5565b610f1c576040517f08c379a0000000000000000000000000000000000000000000000000000000008152600401610f139061232e565b60405180910390fd5b6000610f27836106e9565b90508073ffffffffffffffffffffffffffffffffffffffff168473ffffffffffffffffffffffffffffffffffffffff161480610f9657508373ffffffffffffffffffffffffffffffffffffffff16610f7e846104cc565b73ffffffffffffffffffffffffffffffffffffffff16145b80610fa75750610fa68185610baf565b5b91505092915050565b8273ffffffffffffffffffffffffffffffffffffffff16610fd0826106e9565b73ffffffffffffffffffffffffffffffffffffffff1614611026576040517f08c379a000000000000000000000000000000000000000000000000000000000815260040161101d9061240e565b60405180910390fd5b600073ffffffffffffffffffffffffffffffffffffffff168273ffffffffffffffffffffffffffffffffffffffff161415611096576040517f08c379a000000000000000000000000000000000000000000000000000000000815260040161108d906122ee565b60405180910390fd5b6110a18383836116f2565b6110ac600082610e19565b6001606860008573ffffffffffffffffffffffffffffffffffffffff1673ffffffffffffffffffffffffffffffffffffffff16815260200190815260200160002060008282546110fc919061261a565b925050819055506001606860008473ffffffffffffffffffffffffffffffffffffffff1673ffffffffffffffffffffffffffffffffffffffff16815260200190815260200160002060008282546111539190612593565b92505081905550816067600083815260200190815260200160002060006101000a81548173ffffffffffffffffffffffffffffffffffffffff021916908373ffffffffffffffffffffffffffffffffffffffff160217905550808273ffffffffffffffffffffffffffffffffffffffff168473ffffffffffffffffffffffffffffffffffffffff167fddf252ad1be2c89b69c2b068fc378daa952ba7f163c4a11628f55a4df523b3ef60405160405180910390a4505050565b6000609760009054906101000a900473ffffffffffffffffffffffffffffffffffffffff16905081609760006101000a81548173ffffffffffffffffffffffffffffffffffffffff021916908373ffffffffffffffffffffffffffffffffffffffff1602179055508173ffffffffffffffffffffffffffffffffffffffff168173ffffffffffffffffffffffffffffffffffffffff167f8be0079c531659141344cd1fd0a4f28419497f9722a3daafe3b4186f6b6457e060405160405180910390a35050565b60006112dd306116f7565b15905090565b600060019054906101000a900460ff16611332576040517f08c379a00000000000000000000000000000000000000000000000000000000081526004016113299061248e565b60405180910390fd5b61133a61170a565b61134261175b565b61134c82826117ac565b5050565b600060019054906101000a900460ff1661139f576040517f08c379a00000000000000000000000000000000000000000000000000000000081526004016113969061248e565b60405180910390fd5b6113a761170a565b6113af61182d565b565b8173ffffffffffffffffffffffffffffffffffffffff168373ffffffffffffffffffffffffffffffffffffffff161415611420576040517f08c379a00000000000000000000000000000000000000000000000000000000081526004016114179061230e565b60405180910390fd5b80606a60008573ffffffffffffffffffffffffffffffffffffffff1673ffffffffffffffffffffffffffffffffffffffff16815260200190815260200160002060008473ffffffffffffffffffffffffffffffffffffffff1673ffffffffffffffffffffffffffffffffffffffff16815260200190815260200160002060006101000a81548160ff0219169083151502179055508173ffffffffffffffffffffffffffffffffffffffff168373ffffffffffffffffffffffffffffffffffffffff167f17307eab39ab6107e8899845ad3d59bd9653f200f220920489ca2b5937696c31836040516115119190612271565b60405180910390a3505050565b611529848484610fb0565b6115358484848461188e565b611574576040517f08c379a000000000000000000000000000000000000000000000000000000000815260040161156b906122ae565b60405180910390fd5b50505050565b606060405180602001604052806000815250905090565b606060008214156115d9576040518060400160405280600181526020017f300000000000000000000000000000000000000000000000000000000000000081525090506116ed565b600082905060005b6000821461160b5780806115f490612767565b915050600a8261160491906125e9565b91506115e1565b60008167ffffffffffffffff8111156116275761162661289d565b5b6040519080825280601f01601f1916602001820160405280156116595781602001600182028036833780820191505090505b5090505b600085146116e657600182611672919061261a565b9150600a8561168191906127b0565b603061168d9190612593565b60f81b8183815181106116a3576116a261286e565b5b60200101907effffffffffffffffffffffffffffffffffffffffffffffffffffffffffffff1916908160001a905350600a856116df91906125e9565b945061165d565b8093505050505b919050565b505050565b600080823b905060008111915050919050565b600060019054906101000a900460ff16611759576040517f08c379a00000000000000000000000000000000000000000000000000000000081526004016117509061248e565b60405180910390fd5b565b600060019054906101000a900460ff166117aa576040517f08c379a00000000000000000000000000000000000000000000000000000000081526004016117a19061248e565b60405180910390fd5b565b600060019054906101000a900460ff166117fb576040517f08c379a00000000000000000000000000000000000000000000000000000000081526004016117f29061248e565b60405180910390fd5b8160659080519060200190611811929190611a25565b508060669080519060200190611828929190611a25565b505050565b600060019054906101000a900460ff1661187c576040517f08c379a00000000000000000000000000000000000000000000000000000000081526004016118739061248e565b60405180910390fd5b61188c611887610e11565b61120c565b565b60006118af8473ffffffffffffffffffffffffffffffffffffffff166116f7565b15611a18578373ffffffffffffffffffffffffffffffffffffffff1663150b7a026118d8610e11565b8786866040518563ffffffff1660e01b81526004016118fa9493929190612225565b602060405180830381600087803b15801561191457600080fd5b505af192505050801561194557506040513d601f19601f820116820180604052508101906119429190611e8c565b60015b6119c8573d8060008114611975576040519150601f19603f3d011682016040523d82523d6000602084013e61197a565b606091505b506000815114156119c0576040517f08c379a00000000000000000000000000000000000000000000000000000000081526004016119b7906122ae565b60405180910390fd5b805181602001fd5b63150b7a0260e01b7bffffffffffffffffffffffffffffffffffffffffffffffffffffffff1916817bffffffffffffffffffffffffffffffffffffffffffffffffffffffff191614915050611a1d565b600190505b949350505050565b828054611a3190612704565b90600052602060002090601f016020900481019282611a535760008555611a9a565b82601f10611a6c57805160ff1916838001178555611a9a565b82800160010185558215611a9a579182015b82811115611a99578251825591602001919060010190611a7e565b5b509050611aa79190611aab565b5090565b5b80821115611ac4576000816000905550600101611aac565b5090565b6000611adb611ad6846124ee565b6124c9565b905082815260208101848484011115611af757611af66128d1565b5b611b028482856126c2565b509392505050565b6000611b1d611b188461251f565b6124c9565b905082815260208101848484011115611b3957611b386128d1565b5b611b448482856126c2565b509392505050565b600081359050611b5b81612d95565b92915050565b600081359050611b7081612dac565b92915050565b600081359050611b8581612dc3565b92915050565b600081519050611b9a81612dc3565b92915050565b600082601f830112611bb557611bb46128cc565b5b8135611bc5848260208601611ac8565b91505092915050565b600082601f830112611be357611be26128cc565b5b8135611bf3848260208601611b0a565b91505092915050565b600081359050611c0b81612dda565b92915050565b600060208284031215611c2757611c266128db565b5b6000611c3584828501611b4c565b91505092915050565b60008060408385031215611c5557611c546128db565b5b6000611c6385828601611b4c565b9250506020611c7485828601611b4c565b9150509250929050565b600080600060608486031215611c9757611c966128db565b5b6000611ca586828701611b4c565b9350506020611cb686828701611b4c565b9250506040611cc786828701611bfc565b9150509250925092565b60008060008060808587031215611ceb57611cea6128db565b5b6000611cf987828801611b4c565b9450506020611d0a87828801611b4c565b9350506040611d1b87828801611bfc565b925050606085013567ffffffffffffffff811115611d3c57611d3b6128d6565b5b611d4887828801611ba0565b91505092959194509250565b60008060408385031215611d6b57611d6a6128db565b5b6000611d7985828601611b4c565b9250506020611d8a85828601611b61565b9150509250929050565b600080600060608486031215611dad57611dac6128db565b5b6000611dbb86828701611b4c565b935050602084013567ffffffffffffffff811115611ddc57611ddb6128d6565b5b611de886828701611bce565b925050604084013567ffffffffffffffff811115611e0957611e086128d6565b5b611e1586828701611bce565b9150509250925092565b60008060408385031215611e3657611e356128db565b5b6000611e4485828601611b4c565b9250506020611e5585828601611bfc565b9150509250929050565b600060208284031215611e7557611e746128db565b5b6000611e8384828501611b76565b91505092915050565b600060208284031215611ea257611ea16128db565b5b6000611eb084828501611b8b565b91505092915050565b600060208284031215611ecf57611ece6128db565b5b6000611edd84828501611bfc565b91505092915050565b611eef8161264e565b82525050565b611efe81612660565b82525050565b6000611f0f82612550565b611f198185612566565b9350611f298185602086016126d1565b611f32816128e0565b840191505092915050565b6000611f488261255b565b611f528185612577565b9350611f628185602086016126d1565b611f6b816128e0565b840191505092915050565b6000611f818261255b565b611f8b8185612588565b9350611f9b8185602086016126d1565b80840191505092915050565b6000611fb4603283612577565b9150611fbf826128f1565b604082019050919050565b6000611fd7602683612577565b9150611fe282612940565b604082019050919050565b6000611ffa602483612577565b91506120058261298f565b604082019050919050565b600061201d601983612577565b9150612028826129de565b602082019050919050565b6000612040602c83612577565b915061204b82612a07565b604082019050919050565b6000612063603883612577565b915061206e82612a56565b604082019050919050565b6000612086602a83612577565b915061209182612aa5565b604082019050919050565b60006120a9602983612577565b91506120b482612af4565b604082019050919050565b60006120cc602e83612577565b91506120d782612b43565b604082019050919050565b60006120ef602c83612577565b91506120fa82612b92565b604082019050919050565b6000612112602083612577565b915061211d82612be1565b602082019050919050565b6000612135602983612577565b915061214082612c0a565b604082019050919050565b6000612158602f83612577565b915061216382612c59565b604082019050919050565b600061217b602183612577565b915061218682612ca8565b604082019050919050565b600061219e603183612577565b91506121a982612cf7565b604082019050919050565b60006121c1602b83612577565b91506121cc82612d46565b604082019050919050565b6121e0816126b8565b82525050565b60006121f28285611f76565b91506121fe8284611f76565b91508190509392505050565b600060208201905061221f6000830184611ee6565b92915050565b600060808201905061223a6000830187611ee6565b6122476020830186611ee6565b61225460408301856121d7565b81810360608301526122668184611f04565b905095945050505050565b60006020820190506122866000830184611ef5565b92915050565b600060208201905081810360008301526122a68184611f3d565b905092915050565b600060208201905081810360008301526122c781611fa7565b9050919050565b600060208201905081810360008301526122e781611fca565b9050919050565b6000602082019050818103600083015261230781611fed565b9050919050565b6000602082019050818103600083015261232781612010565b9050919050565b6000602082019050818103600083015261234781612033565b9050919050565b6000602082019050818103600083015261236781612056565b9050919050565b6000602082019050818103600083015261238781612079565b9050919050565b600060208201905081810360008301526123a78161209c565b9050919050565b600060208201905081810360008301526123c7816120bf565b9050919050565b600060208201905081810360008301526123e7816120e2565b9050919050565b6000602082019050818103600083015261240781612105565b9050919050565b6000602082019050818103600083015261242781612128565b9050919050565b600060208201905081810360008301526124478161214b565b9050919050565b600060208201905081810360008301526124678161216e565b9050919050565b6000602082019050818103600083015261248781612191565b9050919050565b600060208201905081810360008301526124a7816121b4565b9050919050565b60006020820190506124c360008301846121d7565b92915050565b60006124d36124e4565b90506124df8282612736565b919050565b6000604051905090565b600067ffffffffffffffff8211156125095761250861289d565b5b612512826128e0565b9050602081019050919050565b600067ffffffffffffffff82111561253a5761253961289d565b5b612543826128e0565b9050602081019050919050565b600081519050919050565b600081519050919050565b600082825260208201905092915050565b600082825260208201905092915050565b600081905092915050565b600061259e826126b8565b91506125a9836126b8565b9250827fffffffffffffffffffffffffffffffffffffffffffffffffffffffffffffffff038211156125de576125dd6127e1565b5b828201905092915050565b60006125f4826126b8565b91506125ff836126b8565b92508261260f5761260e612810565b5b828204905092915050565b6000612625826126b8565b9150612630836126b8565b925082821015612643576126426127e1565b5b828203905092915050565b600061265982612698565b9050919050565b60008115159050919050565b60007fffffffff0000000000000000000000000000000000000000000000000000000082169050919050565b600073ffffffffffffffffffffffffffffffffffffffff82169050919050565b6000819050919050565b82818337600083830152505050565b60005b838110156126ef5780820151818401526020810190506126d4565b838111156126fe576000848401525b50505050565b6000600282049050600182168061271c57607f821691505b602082108114156127305761272f61283f565b5b50919050565b61273f826128e0565b810181811067ffffffffffffffff8211171561275e5761275d61289d565b5b80604052505050565b6000612772826126b8565b91507fffffffffffffffffffffffffffffffffffffffffffffffffffffffffffffffff8214156127a5576127a46127e1565b5b600182019050919050565b60006127bb826126b8565b91506127c6836126b8565b9250826127d6576127d5612810565b5b828206905092915050565b7f4e487b7100000000000000000000000000000000000000000000000000000000600052601160045260246000fd5b7f4e487b7100000000000000000000000000000000000000000000000000000000600052601260045260246000fd5b7f4e487b7100000000000000000000000000000000000000000000000000000000600052602260045260246000fd5b7f4e487b7100000000000000000000000000000000000000000000000000000000600052603260045260246000fd5b7f4e487b7100000000000000000000000000000000000000000000000000000000600052604160045260246000fd5b600080fd5b600080fd5b600080fd5b600080fd5b6000601f19601f8301169050919050565b7f4552433732313a207472616e7366657220746f206e6f6e20455243373231526560008201527f63656976657220696d706c656d656e7465720000000000000000000000000000602082015250565b7f4f776e61626c653a206e6577206f776e657220697320746865207a65726f206160008201527f6464726573730000000000000000000000000000000000000000000000000000602082015250565b7f4552433732313a207472616e7366657220746f20746865207a65726f2061646460008201527f7265737300000000000000000000000000000000000000000000000000000000602082015250565b7f4552433732313a20617070726f766520746f2063616c6c657200000000000000600082015250565b7f4552433732313a206f70657261746f7220717565727920666f72206e6f6e657860008201527f697374656e7420746f6b656e0000000000000000000000000000000000000000602082015250565b7f4552433732313a20617070726f76652063616c6c6572206973206e6f74206f7760008201527f6e6572206e6f7220617070726f76656420666f7220616c6c0000000000000000602082015250565b7f4552433732313a2062616c616e636520717565727920666f7220746865207a6560008201527f726f206164647265737300000000000000000000000000000000000000000000602082015250565b7f4552433732313a206f776e657220717565727920666f72206e6f6e657869737460008201527f656e7420746f6b656e0000000000000000000000000000000000000000000000602082015250565b7f496e697469616c697a61626c653a20636f6e747261637420697320616c72656160008201527f647920696e697469616c697a6564000000000000000000000000000000000000602082015250565b7f4552433732313a20617070726f76656420717565727920666f72206e6f6e657860008201527f697374656e7420746f6b656e0000000000000000000000000000000000000000602082015250565b7f4f776e61626c653a2063616c6c6572206973206e6f7420746865206f776e6572600082015250565b7f4552433732313a207472616e73666572206f6620746f6b656e2074686174206960008201527f73206e6f74206f776e0000000000000000000000000000000000000000000000602082015250565b7f4552433732314d657461646174613a2055524920717565727920666f72206e6f60008201527f6e6578697374656e7420746f6b656e0000000000000000000000000000000000602082015250565b7f4552433732313a20617070726f76616c20746f2063757272656e74206f776e6560008201527f7200000000000000000000000000000000000000000000000000000000000000602082015250565b7f4552433732313a207472616e736665722063616c6c6572206973206e6f74206f60008201527f776e6572206e6f7220617070726f766564000000000000000000000000000000602082015250565b7f496e697469616c697a61626c653a20636f6e7472616374206973206e6f74206960008201527f6e697469616c697a696e67000000000000000000000000000000000000000000602082015250565b612d9e8161264e565b8114612da957600080fd5b50565b612db581612660565b8114612dc057600080fd5b50565b612dcc8161266c565b8114612dd757600080fd5b50565b612de3816126b8565b8114612dee57600080fd5b5056fea26469706673582212209089269d022b37da8d3845e9a67ba50198084efc946f0f28776330c21ebf97b964736f6c63430008060033",
  "linkReferences": {},
  "deployedLinkReferences": {}
}