{
  "_format": "hh-sol-artifact-1",
  "contractName": "CreatorContractFactory",
  "sourceName": "contracts/CreatorContractFactory.sol",
  "abi": [
    {
      "inputs": [
        {
          "internalType": "address",
          "name": "_implementation",
          "type": "address"
        }
      ],
      "stateMutability": "nonpayable",
      "type": "constructor"
    },
    {
      "anonymous": false,
      "inputs": [
        {
          "indexed": true,
          "internalType": "uint256",
          "name": "creatorContractId",
          "type": "uint256"
        },
        {
          "indexed": true,
          "internalType": "address",
          "name": "creator",
          "type": "address"
        },
        {
          "indexed": false,
          "internalType": "address",
          "name": "creatorContractAddress",
          "type": "address"
        }
      ],
      "name": "CreatedContract",
      "type": "event"
    },
    {
      "inputs": [
        {
          "internalType": "string",
          "name": "_name",
          "type": "string"
        },
        {
          "internalType": "string",
          "name": "_symbol",
          "type": "string"
        }
      ],
      "name": "createCreatorContract",
      "outputs": [
        {
          "internalType": "uint256",
          "name": "",
          "type": "uint256"
        }
      ],
      "stateMutability": "nonpayable",
      "type": "function"
    },
    {
      "inputs": [],
      "name": "implementation",
      "outputs": [
        {
          "internalType": "address",
          "name": "",
          "type": "address"
        }
      ],
      "stateMutability": "view",
      "type": "function"
    }
  ],
  "bytecode": "0x608060405234801561001057600080fd5b506040516108b73803806108b78339818101604052810190610032919061008e565b80600160006101000a81548173ffffffffffffffffffffffffffffffffffffffff021916908373ffffffffffffffffffffffffffffffffffffffff16021790555050610109565b600081519050610088816100f2565b92915050565b6000602082840312156100a4576100a36100ed565b5b60006100b284828501610079565b91505092915050565b60006100c6826100cd565b9050919050565b600073ffffffffffffffffffffffffffffffffffffffff82169050919050565b600080fd5b6100fb816100bb565b811461010657600080fd5b50565b61079f806101186000396000f3fe608060405234801561001057600080fd5b50600436106100365760003560e01c806331483e7d1461003b5780635c60da1b1461006b575b600080fd5b61005560048036038101906100509190610354565b610089565b60405161006291906104f8565b60405180910390f35b6100736101c3565b6040516100809190610478565b60405180910390f35b60008061009660006101e9565b905060006100ee600160009054906101000a900473ffffffffffffffffffffffffffffffffffffffff16836040516020016100d1919061045d565b6040516020818303038152906040526100e9906105e6565b6101f7565b90508073ffffffffffffffffffffffffffffffffffffffff1663906571473387876040518463ffffffff1660e01b815260040161012d93929190610493565b600060405180830381600087803b15801561014757600080fd5b505af115801561015b573d6000803e3d6000fd5b505050503373ffffffffffffffffffffffffffffffffffffffff16827fac89c7daadf813e1ce30dbff911bff22b3916cc56425b3c087c07000683190ba836040516101a69190610478565b60405180910390a36101b860006102ce565b819250505092915050565b600160009054906101000a900473ffffffffffffffffffffffffffffffffffffffff1681565b600081600001549050919050565b60006040517f3d602d80600a3d3981f3363d3d373d3d3d363d7300000000000000000000000081528360601b60148201527f5af43d82803e903d91602b57fd5bf300000000000000000000000000000000006028820152826037826000f5915050600073ffffffffffffffffffffffffffffffffffffffff168173ffffffffffffffffffffffffffffffffffffffff1614156102c8576040517f08c379a00000000000000000000000000000000000000000000000000000000081526004016102bf906104d8565b60405180910390fd5b92915050565b6001816000016000828254019250508190555050565b60006102f76102f284610538565b610513565b90508281526020810184848401111561031357610312610713565b5b61031e84828561064d565b509392505050565b600082601f83011261033b5761033a61070e565b5b813561034b8482602086016102e4565b91505092915050565b6000806040838503121561036b5761036a61071d565b5b600083013567ffffffffffffffff81111561038957610388610718565b5b61039585828601610326565b925050602083013567ffffffffffffffff8111156103b6576103b5610718565b5b6103c285828601610326565b9150509250929050565b6103d5816105a0565b82525050565b60006103e682610584565b6103f0818561058f565b935061040081856020860161065c565b61040981610722565b840191505092915050565b600061042160178361058f565b915061042c82610740565b602082019050919050565b610440816105dc565b82525050565b610457610452826105dc565b6106c0565b82525050565b60006104698284610446565b60208201915081905092915050565b600060208201905061048d60008301846103cc565b92915050565b60006060820190506104a860008301866103cc565b81810360208301526104ba81856103db565b905081810360408301526104ce81846103db565b9050949350505050565b600060208201905081810360008301526104f181610414565b9050919050565b600060208201905061050d6000830184610437565b92915050565b600061051d61052e565b9050610529828261068f565b919050565b6000604051905090565b600067ffffffffffffffff821115610553576105526106ca565b5b61055c82610722565b9050602081019050919050565b6000819050602082019050919050565b600081519050919050565b600081519050919050565b600082825260208201905092915050565b60006105ab826105bc565b9050919050565b6000819050919050565b600073ffffffffffffffffffffffffffffffffffffffff82169050919050565b6000819050919050565b60006105f182610579565b826105fb84610569565b9050610606816106f9565b92506020821015610646576106417fffffffffffffffffffffffffffffffffffffffffffffffffffffffffffffffff83602003600802610733565b831692505b5050919050565b82818337600083830152505050565b60005b8381101561067a57808201518184015260208101905061065f565b83811115610689576000848401525b50505050565b61069882610722565b810181811067ffffffffffffffff821117156106b7576106b66106ca565b5b80604052505050565b6000819050919050565b7f4e487b7100000000000000000000000000000000000000000000000000000000600052604160045260246000fd5b600061070582516105b2565b80915050919050565b600080fd5b600080fd5b600080fd5b600080fd5b6000601f19601f8301169050919050565b600082821b905092915050565b7f455243313136373a2063726561746532206661696c656400000000000000000060008201525056fea2646970667358221220e03e27610a747db2a7423b9f2673020d5b3313c3a95f7905ad1c397c4eda256c64736f6c63430008060033",
  "linkReferences": {},
  "deployedLinkReferences": {}
}